{
  "_format": "hh-sol-artifact-1",
  "contractName": "UniswapV3Staker",
  "sourceName": "contracts/UniswapV3Staker.sol",
  "abi": [
    {
      "inputs": [
        {
          "internalType": "contract IUniswapV3Factory",
          "name": "_factory",
          "type": "address"
        },
        {
          "internalType": "contract INonfungiblePositionManager",
          "name": "_nonfungiblePositionManager",
          "type": "address"
        },
        {
          "internalType": "uint256",
          "name": "_maxIncentiveStartLeadTime",
          "type": "uint256"
        },
        {
          "internalType": "uint256",
          "name": "_maxIncentiveDuration",
          "type": "uint256"
        }
      ],
      "stateMutability": "nonpayable",
      "type": "constructor"
    },
    {
      "anonymous": false,
      "inputs": [
        {
          "indexed": true,
          "internalType": "uint256",
          "name": "tokenId",
          "type": "uint256"
        },
        {
          "indexed": true,
          "internalType": "address",
          "name": "oldOwner",
          "type": "address"
        },
        {
          "indexed": true,
          "internalType": "address",
          "name": "newOwner",
          "type": "address"
        }
      ],
      "name": "DepositTransferred",
      "type": "event"
    },
    {
      "anonymous": false,
      "inputs": [
        {
          "indexed": true,
          "internalType": "contract IERC20Minimal",
          "name": "rewardToken",
          "type": "address"
        },
        {
          "indexed": true,
          "internalType": "contract IUniswapV3Pool",
          "name": "pool",
          "type": "address"
        },
        {
          "indexed": false,
          "internalType": "uint256",
          "name": "startTime",
          "type": "uint256"
        },
        {
          "indexed": false,
          "internalType": "uint256",
          "name": "endTime",
          "type": "uint256"
        },
        {
          "indexed": false,
          "internalType": "address",
          "name": "refundee",
          "type": "address"
        },
        {
          "indexed": false,
          "internalType": "uint256",
          "name": "reward",
          "type": "uint256"
        }
      ],
      "name": "IncentiveCreated",
      "type": "event"
    },
    {
      "anonymous": false,
      "inputs": [
        {
          "indexed": true,
          "internalType": "bytes32",
          "name": "incentiveId",
          "type": "bytes32"
        },
        {
          "indexed": false,
          "internalType": "uint256",
          "name": "refund",
          "type": "uint256"
        }
      ],
      "name": "IncentiveEnded",
      "type": "event"
    },
    {
      "anonymous": false,
      "inputs": [
        {
          "indexed": true,
          "internalType": "address",
          "name": "to",
          "type": "address"
        },
        {
          "indexed": false,
          "internalType": "uint256",
          "name": "reward",
          "type": "uint256"
        }
      ],
      "name": "RewardClaimed",
      "type": "event"
    },
    {
      "anonymous": false,
      "inputs": [
        {
          "indexed": true,
          "internalType": "uint256",
          "name": "tokenId",
          "type": "uint256"
        },
        {
          "indexed": true,
          "internalType": "bytes32",
          "name": "incentiveId",
          "type": "bytes32"
        },
        {
          "indexed": false,
          "internalType": "uint128",
          "name": "liquidity",
          "type": "uint128"
        }
      ],
      "name": "TokenStaked",
      "type": "event"
    },
    {
      "anonymous": false,
      "inputs": [
        {
          "indexed": true,
          "internalType": "uint256",
          "name": "tokenId",
          "type": "uint256"
        },
        {
          "indexed": true,
          "internalType": "bytes32",
          "name": "incentiveId",
          "type": "bytes32"
        }
      ],
      "name": "TokenUnstaked",
      "type": "event"
    },
    {
      "inputs": [
        {
          "internalType": "contract IERC20Minimal",
          "name": "rewardToken",
          "type": "address"
        },
        {
          "internalType": "address",
          "name": "to",
          "type": "address"
        },
        {
          "internalType": "uint256",
          "name": "amountRequested",
          "type": "uint256"
        }
      ],
      "name": "claimReward",
      "outputs": [
        {
          "internalType": "uint256",
          "name": "reward",
          "type": "uint256"
        }
      ],
      "stateMutability": "nonpayable",
      "type": "function"
    },
    {
      "inputs": [
        {
          "components": [
            {
              "internalType": "contract IERC20Minimal",
              "name": "rewardToken",
              "type": "address"
            },
            {
              "internalType": "contract IUniswapV3Pool",
              "name": "pool",
              "type": "address"
            },
            {
              "internalType": "uint256",
              "name": "startTime",
              "type": "uint256"
            },
            {
              "internalType": "uint256",
              "name": "endTime",
              "type": "uint256"
            },
            {
              "internalType": "address",
              "name": "refundee",
              "type": "address"
            },
            {
              "internalType": "int24",
              "name": "tickLower",
              "type": "int24"
            },
            {
              "internalType": "int24",
              "name": "tickUpper",
              "type": "int24"
            }
          ],
          "internalType": "struct IUniswapV3Staker.IncentiveKey",
          "name": "key",
          "type": "tuple"
        },
        {
          "internalType": "uint256",
          "name": "reward",
          "type": "uint256"
        }
      ],
      "name": "createIncentive",
      "outputs": [],
      "stateMutability": "nonpayable",
      "type": "function"
    },
    {
      "inputs": [
        {
          "internalType": "uint256",
          "name": "",
          "type": "uint256"
        }
      ],
      "name": "deposits",
      "outputs": [
        {
          "internalType": "address",
          "name": "owner",
          "type": "address"
        },
        {
          "internalType": "uint48",
          "name": "numberOfStakes",
          "type": "uint48"
        },
        {
          "internalType": "int24",
          "name": "tickLower",
          "type": "int24"
        },
        {
          "internalType": "int24",
          "name": "tickUpper",
          "type": "int24"
        }
      ],
      "stateMutability": "view",
      "type": "function"
    },
    {
      "inputs": [
        {
          "components": [
            {
              "internalType": "contract IERC20Minimal",
              "name": "rewardToken",
              "type": "address"
            },
            {
              "internalType": "contract IUniswapV3Pool",
              "name": "pool",
              "type": "address"
            },
            {
              "internalType": "uint256",
              "name": "startTime",
              "type": "uint256"
            },
            {
              "internalType": "uint256",
              "name": "endTime",
              "type": "uint256"
            },
            {
              "internalType": "address",
              "name": "refundee",
              "type": "address"
            },
            {
              "internalType": "int24",
              "name": "tickLower",
              "type": "int24"
            },
            {
              "internalType": "int24",
              "name": "tickUpper",
              "type": "int24"
            }
          ],
          "internalType": "struct IUniswapV3Staker.IncentiveKey",
          "name": "key",
          "type": "tuple"
        }
      ],
      "name": "endIncentive",
      "outputs": [
        {
          "internalType": "uint256",
          "name": "refund",
          "type": "uint256"
        }
      ],
      "stateMutability": "nonpayable",
      "type": "function"
    },
    {
      "inputs": [],
      "name": "factory",
      "outputs": [
        {
          "internalType": "contract IUniswapV3Factory",
          "name": "",
          "type": "address"
        }
      ],
      "stateMutability": "view",
      "type": "function"
    },
    {
      "inputs": [
        {
          "components": [
            {
              "internalType": "contract IERC20Minimal",
              "name": "rewardToken",
              "type": "address"
            },
            {
              "internalType": "contract IUniswapV3Pool",
              "name": "pool",
              "type": "address"
            },
            {
              "internalType": "uint256",
              "name": "startTime",
              "type": "uint256"
            },
            {
              "internalType": "uint256",
              "name": "endTime",
              "type": "uint256"
            },
            {
              "internalType": "address",
              "name": "refundee",
              "type": "address"
            },
            {
              "internalType": "int24",
              "name": "tickLower",
              "type": "int24"
            },
            {
              "internalType": "int24",
              "name": "tickUpper",
              "type": "int24"
            }
          ],
          "internalType": "struct IUniswapV3Staker.IncentiveKey",
          "name": "key",
          "type": "tuple"
        },
        {
          "internalType": "uint256",
          "name": "tokenId",
          "type": "uint256"
        }
      ],
      "name": "getRewardInfo",
      "outputs": [
        {
          "internalType": "uint256",
          "name": "reward",
          "type": "uint256"
        },
        {
          "internalType": "uint160",
          "name": "secondsInsideX128",
          "type": "uint160"
        }
      ],
      "stateMutability": "view",
      "type": "function"
    },
    {
      "inputs": [
        {
          "internalType": "bytes32",
          "name": "",
          "type": "bytes32"
        }
      ],
      "name": "incentives",
      "outputs": [
        {
          "internalType": "uint256",
          "name": "totalRewardUnclaimed",
          "type": "uint256"
        },
        {
          "internalType": "uint160",
          "name": "totalSecondsClaimedX128",
          "type": "uint160"
        },
        {
          "internalType": "uint96",
          "name": "numberOfStakes",
          "type": "uint96"
        },
        {
          "internalType": "int24",
          "name": "tickLower",
          "type": "int24"
        },
        {
          "internalType": "int24",
          "name": "tickUpper",
          "type": "int24"
        }
      ],
      "stateMutability": "view",
      "type": "function"
    },
    {
      "inputs": [],
      "name": "maxIncentiveDuration",
      "outputs": [
        {
          "internalType": "uint256",
          "name": "",
          "type": "uint256"
        }
      ],
      "stateMutability": "view",
      "type": "function"
    },
    {
      "inputs": [],
      "name": "maxIncentiveStartLeadTime",
      "outputs": [
        {
          "internalType": "uint256",
          "name": "",
          "type": "uint256"
        }
      ],
      "stateMutability": "view",
      "type": "function"
    },
    {
      "inputs": [
        {
          "internalType": "bytes[]",
          "name": "data",
          "type": "bytes[]"
        }
      ],
      "name": "multicall",
      "outputs": [
        {
          "internalType": "bytes[]",
          "name": "results",
          "type": "bytes[]"
        }
      ],
      "stateMutability": "payable",
      "type": "function"
    },
    {
      "inputs": [],
      "name": "nonfungiblePositionManager",
      "outputs": [
        {
          "internalType": "contract INonfungiblePositionManager",
          "name": "",
          "type": "address"
        }
      ],
      "stateMutability": "view",
      "type": "function"
    },
    {
      "inputs": [
        {
          "internalType": "address",
          "name": "",
          "type": "address"
        },
        {
          "internalType": "address",
          "name": "from",
          "type": "address"
        },
        {
          "internalType": "uint256",
          "name": "tokenId",
          "type": "uint256"
        },
        {
          "internalType": "bytes",
          "name": "data",
          "type": "bytes"
        }
      ],
      "name": "onERC721Received",
      "outputs": [
        {
          "internalType": "bytes4",
          "name": "",
          "type": "bytes4"
        }
      ],
      "stateMutability": "nonpayable",
      "type": "function"
    },
    {
      "inputs": [
        {
          "internalType": "contract IERC20Minimal",
          "name": "",
          "type": "address"
        },
        {
          "internalType": "address",
          "name": "",
          "type": "address"
        }
      ],
      "name": "rewards",
      "outputs": [
        {
          "internalType": "uint256",
          "name": "",
          "type": "uint256"
        }
      ],
      "stateMutability": "view",
      "type": "function"
    },
    {
      "inputs": [
        {
          "components": [
            {
              "internalType": "contract IERC20Minimal",
              "name": "rewardToken",
              "type": "address"
            },
            {
              "internalType": "contract IUniswapV3Pool",
              "name": "pool",
              "type": "address"
            },
            {
              "internalType": "uint256",
              "name": "startTime",
              "type": "uint256"
            },
            {
              "internalType": "uint256",
              "name": "endTime",
              "type": "uint256"
            },
            {
              "internalType": "address",
              "name": "refundee",
              "type": "address"
            },
            {
              "internalType": "int24",
              "name": "tickLower",
              "type": "int24"
            },
            {
              "internalType": "int24",
              "name": "tickUpper",
              "type": "int24"
            }
          ],
          "internalType": "struct IUniswapV3Staker.IncentiveKey",
          "name": "key",
          "type": "tuple"
        },
        {
          "internalType": "uint256",
          "name": "tokenId",
          "type": "uint256"
        }
      ],
      "name": "stakeToken",
      "outputs": [],
      "stateMutability": "nonpayable",
      "type": "function"
    },
    {
      "inputs": [
        {
          "internalType": "uint256",
          "name": "tokenId",
          "type": "uint256"
        },
        {
          "internalType": "bytes32",
          "name": "incentiveId",
          "type": "bytes32"
        }
      ],
      "name": "stakes",
      "outputs": [
        {
          "internalType": "uint160",
          "name": "secondsPerLiquidityInsideInitialX128",
          "type": "uint160"
        },
        {
          "internalType": "uint128",
          "name": "liquidity",
          "type": "uint128"
        }
      ],
      "stateMutability": "view",
      "type": "function"
    },
    {
      "inputs": [
        {
          "internalType": "uint256",
          "name": "tokenId",
          "type": "uint256"
        },
        {
          "internalType": "address",
          "name": "to",
          "type": "address"
        }
      ],
      "name": "transferDeposit",
      "outputs": [],
      "stateMutability": "nonpayable",
      "type": "function"
    },
    {
      "inputs": [
        {
          "components": [
            {
              "internalType": "contract IERC20Minimal",
              "name": "rewardToken",
              "type": "address"
            },
            {
              "internalType": "contract IUniswapV3Pool",
              "name": "pool",
              "type": "address"
            },
            {
              "internalType": "uint256",
              "name": "startTime",
              "type": "uint256"
            },
            {
              "internalType": "uint256",
              "name": "endTime",
              "type": "uint256"
            },
            {
              "internalType": "address",
              "name": "refundee",
              "type": "address"
            },
            {
              "internalType": "int24",
              "name": "tickLower",
              "type": "int24"
            },
            {
              "internalType": "int24",
              "name": "tickUpper",
              "type": "int24"
            }
          ],
          "internalType": "struct IUniswapV3Staker.IncentiveKey",
          "name": "key",
          "type": "tuple"
        },
        {
          "internalType": "uint256",
          "name": "tokenId",
          "type": "uint256"
        }
      ],
      "name": "unstakeToken",
      "outputs": [],
      "stateMutability": "nonpayable",
      "type": "function"
    },
    {
      "inputs": [
        {
          "internalType": "uint256",
          "name": "tokenId",
          "type": "uint256"
        },
        {
          "internalType": "address",
          "name": "to",
          "type": "address"
        },
        {
          "internalType": "bytes",
          "name": "data",
          "type": "bytes"
        }
      ],
      "name": "withdrawToken",
      "outputs": [],
      "stateMutability": "nonpayable",
      "type": "function"
    }
  ],
  "bytecode": "0x6101006040523480156200001257600080fd5b5060405162003de838038062003de883398101604081905262000035916200005e565b6001600160601b0319606094851b81166080529290931b90911660a05260c05260e052620000c3565b6000806000806080858703121562000074578384fd5b84516200008181620000aa565b60208601519094506200009481620000aa565b6040860151606090960151949790965092505050565b6001600160a01b0381168114620000c057600080fd5b50565b60805160601c60a05160601c60c05160e051613cc66200012260003980610bbf52806115ba5250806103b352806115195250806103ef52806104545280610b4a52806119335280611b8c5250806119dc5280611b6b5250613cc66000f3fe6080604052600436106101295760003560e01c806383ceebb1116100a5578063b02c43d011610074578063c36c1ea511610059578063c36c1ea51461034e578063c45a01551461037c578063e70b9e271461039157610129565b8063b02c43d0146102fc578063b44a27221461032c57610129565b806383ceebb11461027c5780638edfb4d11461029c5780639cbdec3c146102bc578063ac9650d8146102dc57610129565b80633c423f0b116100fc5780634d6eb990116100e15780634d6eb990146101fd578063607777951461022b578063827cfd7e1461025c57610129565b80633c423f0b146101c85780633dc0714b146101e857610129565b806301b754401461012e578063150b7a021461015957806326bfee04146101865780632f2d783d146101a8575b600080fd5b34801561013a57600080fd5b506101436103b1565b6040516101509190613adc565b60405180910390f35b34801561016557600080fd5b506101796101743660046128e4565b6103d5565b6040516101509190612f5a565b34801561019257600080fd5b506101a66101a1366004612c42565b61071e565b005b3480156101b457600080fd5b506101436101c3366004612aeb565b61084c565b3480156101d457600080fd5b506101a66101e3366004612c66565b61092a565b3480156101f457600080fd5b50610143610bbd565b34801561020957600080fd5b5061021d610218366004612c17565b610be1565b604051610150929190613ae5565b34801561023757600080fd5b5061024b610246366004612a9b565b610e2f565b604051610150959493929190613b09565b34801561026857600080fd5b506101a6610277366004612c17565b610e9d565b34801561028857600080fd5b50610143610297366004612bfc565b610f08565b3480156102a857600080fd5b506101a66102b7366004612c17565b611056565b3480156102c857600080fd5b506101a66102d7366004612c17565b61149f565b6102ef6102ea36600461297e565b611745565b6040516101509190612edc565b34801561030857600080fd5b5061031c610317366004612a9b565b61189f565b6040516101509493929190612e9b565b34801561033857600080fd5b50610341611931565b6040516101509190612f87565b34801561035a57600080fd5b5061036e610369366004612cf8565b611955565b604051610150929190613aa4565b34801561038857600080fd5b506103416119da565b34801561039d57600080fd5b506101436103ac366004612ab3565b6119fe565b7f000000000000000000000000000000000000000000000000000000000000000081565b60003373ffffffffffffffffffffffffffffffffffffffff7f0000000000000000000000000000000000000000000000000000000000000000161461044f576040517f08c379a00000000000000000000000000000000000000000000000000000000081526004016104469061395d565b60405180910390fd5b6000807f000000000000000000000000000000000000000000000000000000000000000073ffffffffffffffffffffffffffffffffffffffff166399fbab88876040518263ffffffff1660e01b81526004016104ab9190613adc565b6101806040518083038186803b1580156104c457600080fd5b505afa1580156104d8573d6000803e3d6000fd5b505050506040513d601f19601f820116820180604052508101906104fc9190612d19565b505050505096509650505050505060405180608001604052808873ffffffffffffffffffffffffffffffffffffffff168152602001600065ffffffffffff1681526020018360020b81526020018260020b8152506001600088815260200190815260200160002060008201518160000160006101000a81548173ffffffffffffffffffffffffffffffffffffffff021916908373ffffffffffffffffffffffffffffffffffffffff16021790555060208201518160000160146101000a81548165ffffffffffff021916908365ffffffffffff160217905550604082015181600001601a6101000a81548162ffffff021916908360020b62ffffff160217905550606082015181600001601d6101000a81548162ffffff021916908360020b62ffffff1602179055509050508673ffffffffffffffffffffffffffffffffffffffff16600073ffffffffffffffffffffffffffffffffffffffff16877fcdfc765b85e1048bee3c6a0f9d1c91fc7c4631f5fe5745a55fc6843db5c3260f60405160405180910390a483156106f15760a08414156106ad576106a86106a285870187612bfc565b87611a1b565b6106f1565b60006106bb858701876129ed565b905060005b81518110156106ee576106e68282815181106106d857fe5b602002602001015189611a1b565b6001016106c0565b50505b507f150b7a0200000000000000000000000000000000000000000000000000000000979650505050505050565b73ffffffffffffffffffffffffffffffffffffffff811661076b576040517f08c379a000000000000000000000000000000000000000000000000000000000815260040161044690613329565b60008281526001602052604090205473ffffffffffffffffffffffffffffffffffffffff163381146107c9576040517f08c379a00000000000000000000000000000000000000000000000000000000081526004016104469061302c565b60008381526001602052604080822080547fffffffffffffffffffffffff00000000000000000000000000000000000000001673ffffffffffffffffffffffffffffffffffffffff868116918217909255915191929084169186917fcdfc765b85e1048bee3c6a0f9d1c91fc7c4631f5fe5745a55fc6843db5c3260f91a4505050565b73ffffffffffffffffffffffffffffffffffffffff83166000908152600360209081526040808320338452909152902054811580159061088b57508082105b156108935750805b73ffffffffffffffffffffffffffffffffffffffff841660009081526003602090815260408083203384529091529020805482900390556108d584848361204e565b8273ffffffffffffffffffffffffffffffffffffffff167f106f923f993c2149d49b4255ff723acafa1f2d94393f561d3eda32ae348f72418260405161091b9190613adc565b60405180910390a29392505050565b73ffffffffffffffffffffffffffffffffffffffff821630141561097a576040517f08c379a0000000000000000000000000000000000000000000000000000000008152600401610446906139ba565b6000838152600160209081526040918290208251608081018452905473ffffffffffffffffffffffffffffffffffffffff8116825265ffffffffffff740100000000000000000000000000000000000000008204169282018390527a0100000000000000000000000000000000000000000000000000008104600290810b810b810b948301949094527d0100000000000000000000000000000000000000000000000000000000009004830b830b90920b606083015215610a67576040517f08c379a0000000000000000000000000000000000000000000000000000000008152600401610446906131ec565b805173ffffffffffffffffffffffffffffffffffffffff163314610ab7576040517f08c379a000000000000000000000000000000000000000000000000000000000815260040161044690613627565b6000848152600160205260408082208290558251905173ffffffffffffffffffffffffffffffffffffffff9091169086907fcdfc765b85e1048bee3c6a0f9d1c91fc7c4631f5fe5745a55fc6843db5c3260f908490a46040517fb88d4fde00000000000000000000000000000000000000000000000000000000815273ffffffffffffffffffffffffffffffffffffffff7f0000000000000000000000000000000000000000000000000000000000000000169063b88d4fde90610b85903090879089908890600401612e52565b600060405180830381600087803b158015610b9f57600080fd5b505af1158015610bb3573d6000803e3d6000fd5b5050505050505050565b7f000000000000000000000000000000000000000000000000000000000000000081565b6000806000610bef8561222a565b9050600080610bfe8684611955565b915091506000816fffffffffffffffffffffffffffffffff1611610c4e576040517f08c379a0000000000000000000000000000000000000000000000000000000008152600401610446906130af565b6000868152600160208181526040808420815160808082018452915473ffffffffffffffffffffffffffffffffffffffff80821683527401000000000000000000000000000000000000000080830465ffffffffffff16848801527a0100000000000000000000000000000000000000000000000000008304600290810b810b810b8588019081527d010000000000000000000000000000000000000000000000000000000000909404810b810b810b60608087019182528e8c528b8a52888c20895160a081018b52815481529b8101548087168d8d0152949094046bffffffffffffffffffffffff168b8a01529282015480830b830b830b938b01939093526301000000909204810b810b900b94880194909452948e01519051925193517fa38807f2000000000000000000000000000000000000000000000000000000008152919694169263a38807f292610daa92909190600401612fa8565b60606040518083038186803b158015610dc257600080fd5b505afa158015610dd6573d6000803e3d6000fd5b505050506040513d601f19601f82011682018060405250810190610dfa9190612b2b565b50915050610e1e826000015183602001518c604001518d60600151888a874261225b565b909b909a5098505050505050505050565b600060208190529081526040902080546001820154600292830154919273ffffffffffffffffffffffffffffffffffffffff821692740100000000000000000000000000000000000000009092046bffffffffffffffffffffffff169180820b916301000000909104900b85565b60008181526001602052604090205473ffffffffffffffffffffffffffffffffffffffff163314610efa576040517f08c379a000000000000000000000000000000000000000000000000000000000815260040161044690613764565b610f048282611a1b565b5050565b60008160600151421015610f48576040517f08c379a00000000000000000000000000000000000000000000000000000000081526004016104469061310c565b6000610f538361222a565b60008181526020819052604090208054935090915082610f9f576040517f08c379a000000000000000000000000000000000000000000000000000000000815260040161044690612fcf565b60018101547401000000000000000000000000000000000000000090046bffffffffffffffffffffffff1615611001576040517f08c379a000000000000000000000000000000000000000000000000000000000815260040161044690613684565b600081558351608085015161101791908561204e565b817f65124e6175aa9904f40735e87e2a37c76e87a609b855287bb4d1aba8257d9763846040516110479190613adc565b60405180910390a25050919050565b6000818152600160209081526040918290208251608081018452905473ffffffffffffffffffffffffffffffffffffffff8116825265ffffffffffff74010000000000000000000000000000000000000000820416928201929092527a0100000000000000000000000000000000000000000000000000008204600290810b810b810b938201939093527d010000000000000000000000000000000000000000000000000000000000909104820b820b90910b60608083019190915283015142101561116c57805173ffffffffffffffffffffffffffffffffffffffff16331461116c576040517f08c379a0000000000000000000000000000000000000000000000000000000008152600401610446906134c4565b60006111778461222a565b90506000806111868584611955565b91509150806fffffffffffffffffffffffffffffffff16600014156111d7576040517f08c379a00000000000000000000000000000000000000000000000000000000081526004016104469061318f565b600083815260208181526040808320888452600180845282852080547fffffffffffffffffffffffffffffffffffffffffffffffffffffffffffffffff65ffffffffffff740100000000000000000000000000000000000000008084048216830190911681027fffffffffffff000000000000ffffffffffffffffffffffffffffffffffffffff9093169290921790925591830180546bffffffffffffffffffffffff848204811690930190921690920273ffffffffffffffffffffffffffffffffffffffff91821617909155928a01518883015160608a015193517fa38807f2000000000000000000000000000000000000000000000000000000008152929594919091169263a38807f2926112f2929190600401612fa8565b60606040518083038186803b15801561130a57600080fd5b505afa15801561131e573d6000803e3d6000fd5b505050506040513d601f19601f820116820180604052508101906113429190612b2b565b508354600185015460408c015160608d0151939550600094508493611383939273ffffffffffffffffffffffffffffffffffffffff169190898b894261225b565b6001860180547fffffffffffffffffffffffff0000000000000000000000000000000000000000811673ffffffffffffffffffffffffffffffffffffffff9182168401821617909155865483900387558c51811660009081526003602090815260408083208e5190941683529281528282208054860190558d8252600281528282208c8352905290812090815591935091506bffffffffffffffffffffffff6fffffffffffffffffffffffffffffffff871610611465576001810180547fffffffffffffffffffffffffffffffff000000000000000000000000000000001690555b60405188908b907fe1ba67e807ae0efa0a9549f9520ddc15c27f0a4dae2bc045e800ca66a940778f90600090a35050505050505050505050565b600081116114d9576040517f08c379a0000000000000000000000000000000000000000000000000000000008152600401610446906137c1565b8160400151421115611517576040517f08c379a000000000000000000000000000000000000000000000000000000000815260040161044690613386565b7f0000000000000000000000000000000000000000000000000000000000000000428360400151031115611577576040517f08c379a00000000000000000000000000000000000000000000000000000000081526004016104469061381e565b81606001518260400151106115b8576040517f08c379a0000000000000000000000000000000000000000000000000000000008152600401610446906138da565b7f00000000000000000000000000000000000000000000000000000000000000008260400151836060015103111561161c576040517f08c379a00000000000000000000000000000000000000000000000000000000081526004016104469061387c565b60006116278361222a565b600081815260208190526040902080548401815560a08501516002918201805460c0880151840b62ffffff9081166301000000027fffffffffffffffffffffffffffffffffffffffffffffffffffff000000ffffff9490950b167fffffffffffffffffffffffffffffffffffffffffffffffffffffffffff000000909116179190911691909117905583519091506116c1903330856122dd565b826020015173ffffffffffffffffffffffffffffffffffffffff16836000015173ffffffffffffffffffffffffffffffffffffffff167fa876344e28d4b5191ad03bc0d43f740e3695827ab0faccac739930b915ef8b02856040015186606001518760800151876040516117389493929190613b56565b60405180910390a3505050565b60608167ffffffffffffffff8111801561175e57600080fd5b5060405190808252806020026020018201604052801561179257816020015b606081526020019060019003908161177d5790505b50905060005b8281101561189857600080308686858181106117b057fe5b90506020028101906117c29190613b87565b6040516117d0929190612e42565b600060405180830381855af49150503d806000811461180b576040519150601f19603f3d011682016040523d82523d6000602084013e611810565b606091505b5091509150816118765760448151101561182957600080fd5b600481019050808060200190518101906118439190612b84565b6040517f08c379a00000000000000000000000000000000000000000000000000000000081526004016104469190612fbc565b8084848151811061188357fe5b60209081029190910101525050600101611798565b5092915050565b60016020526000908152604090205473ffffffffffffffffffffffffffffffffffffffff81169065ffffffffffff74010000000000000000000000000000000000000000820416907a0100000000000000000000000000000000000000000000000000008104600290810b917d0100000000000000000000000000000000000000000000000000000000009004900b84565b7f000000000000000000000000000000000000000000000000000000000000000081565b60008281526002602090815260408083208484529091529020805473ffffffffffffffffffffffffffffffffffffffff8116916bffffffffffffffffffffffff740100000000000000000000000000000000000000009092048216918214156119d25760018101546fffffffffffffffffffffffffffffffff1691505b509250929050565b7f000000000000000000000000000000000000000000000000000000000000000081565b600360209081526000928352604080842090915290825290205481565b8160400151421015611a59576040517f08c379a000000000000000000000000000000000000000000000000000000000815260040161044690613547565b81606001514210611a96576040517f08c379a0000000000000000000000000000000000000000000000000000000008152600401610446906132cc565b6000611aa18361222a565b600081815260208190526040902054909150611ae9576040517f08c379a000000000000000000000000000000000000000000000000000000000815260040161044690613467565b60008281526002602090815260408083208484529091529020547401000000000000000000000000000000000000000090046bffffffffffffffffffffffff1615611b60576040517f08c379a00000000000000000000000000000000000000000000000000000000081526004016104469061326f565b600080600080611bb17f00000000000000000000000000000000000000000000000000000000000000007f0000000000000000000000000000000000000000000000000000000000000000886124c2565b9350935093509350866020015173ffffffffffffffffffffffffffffffffffffffff168473ffffffffffffffffffffffffffffffffffffffff1614611c22576040517f08c379a0000000000000000000000000000000000000000000000000000000008152600401610446906135a4565b6000858152602081905260409020600290810154810b900b151580611c645750600085815260208190526040902060029081015463010000009004810b900b15155b15611ce8576000858152602081905260409020600290810154810b810b9084900b148015611cb25750600085815260208190526040902060029081015463010000009004810b810b9083900b145b611ce8576040517f08c379a000000000000000000000000000000000000000000000000000000000815260040161044690613707565b6000816fffffffffffffffffffffffffffffffff1611611d34576040517f08c379a000000000000000000000000000000000000000000000000000000000815260040161044690613409565b6000868152600160208181526040808420805465ffffffffffff740100000000000000000000000000000000000000008083048216870190911681027fffffffffffff000000000000ffffffffffffffffffffffffffffffffffffffff9092169190911790915589855291849052808420830180546bffffffffffffffffffffffff848204811690950190941690920273ffffffffffffffffffffffffffffffffffffffff93841617909155517fa38807f20000000000000000000000000000000000000000000000000000000081529086169063a38807f290611e1e9087908790600401612fa8565b60606040518083038186803b158015611e3657600080fd5b505afa158015611e4a573d6000803e3d6000fd5b505050506040513d601f19601f82011682018060405250810190611e6e9190612b2b565b509150506bffffffffffffffffffffffff6fffffffffffffffffffffffffffffffff831610611f87576040805160608101825273ffffffffffffffffffffffffffffffffffffffff80841682526bffffffffffffffffffffffff60208084018281526fffffffffffffffffffffffffffffffff80891686880190815260008f8152600285528881208f82529094529690922094518554915190931674010000000000000000000000000000000000000000029284167fffffffffffffffffffffffff000000000000000000000000000000000000000090911617909216178255915160019091018054919092167fffffffffffffffffffffffffffffffff0000000000000000000000000000000090911617905561200b565b6000878152600260209081526040808320898452909152902080547fffffffffffffffffffffffff00000000000000000000000000000000000000001673ffffffffffffffffffffffffffffffffffffffff8381169190911716740100000000000000000000000000000000000000006bffffffffffffffffffffffff8516021790555b85877f3fe90ccd0a34e28f2b4b7a1e8323415ed9dd595f4eec5dfd461d18c2df336dbd8460405161203c9190613a87565b60405180910390a35050505050505050565b6040805173ffffffffffffffffffffffffffffffffffffffff8481166024830152604480830185905283518084039091018152606490920183526020820180517bffffffffffffffffffffffffffffffffffffffffffffffffffffffff167fa9059cbb000000000000000000000000000000000000000000000000000000001781529251825160009485949389169392918291908083835b6020831061212357805182527fffffffffffffffffffffffffffffffffffffffffffffffffffffffffffffffe090920191602091820191016120e6565b6001836020036101000a0380198251168184511680821785525050505050509050019150506000604051808303816000865af19150503d8060008114612185576040519150601f19603f3d011682016040523d82523d6000602084013e61218a565b606091505b50915091508180156121b85750805115806121b857508080602001905160208110156121b557600080fd5b50515b61222357604080517f08c379a000000000000000000000000000000000000000000000000000000000815260206004820152600260248201527f5354000000000000000000000000000000000000000000000000000000000000604482015290519081900360640190fd5b5050505050565b60008160405160200161223d9190613a17565b6040516020818303038152906040528051906020012090505b919050565b6000808783101561226857fe5b508383036fffffffffffffffffffffffffffffffff861602600073ffffffffffffffffffffffffffffffffffffffff8a1660808a6122a68b886125cb565b03901b0390506122cd8b8373ffffffffffffffffffffffffffffffffffffffff16836125e4565b9250509850989650505050505050565b6040805173ffffffffffffffffffffffffffffffffffffffff85811660248301528481166044830152606480830185905283518084039091018152608490920183526020820180517bffffffffffffffffffffffffffffffffffffffffffffffffffffffff167f23b872dd00000000000000000000000000000000000000000000000000000000178152925182516000948594938a169392918291908083835b602083106123ba57805182527fffffffffffffffffffffffffffffffffffffffffffffffffffffffffffffffe0909201916020918201910161237d565b6001836020036101000a0380198251168184511680821785525050505050509050019150506000604051808303816000865af19150503d806000811461241c576040519150601f19603f3d011682016040523d82523d6000602084013e612421565b606091505b509150915081801561244f57508051158061244f575080806020019051602081101561244c57600080fd5b50515b6124ba57604080517f08c379a000000000000000000000000000000000000000000000000000000000815260206004820152600360248201527f5354460000000000000000000000000000000000000000000000000000000000604482015290519081900360640190fd5b505050505050565b60008060008060008060008873ffffffffffffffffffffffffffffffffffffffff166399fbab88896040518263ffffffff1660e01b8152600401808281526020019150506101806040518083038186803b15801561251f57600080fd5b505afa158015612533573d6000803e3d6000fd5b505050506040513d61018081101561254a57600080fd5b50604080820151606080840151608085015160a086015160c087015160e0909701518651948501875273ffffffffffffffffffffffffffffffffffffffff80871686528416602086015262ffffff8316968501969096529b509499509297509095509093509091506125bd908b906126b1565b965050505093509350935093565b6000818310156125db57816125dd565b825b9392505050565b600080807fffffffffffffffffffffffffffffffffffffffffffffffffffffffffffffffff85870986860292508281109083900303905080612638576000841161262d57600080fd5b5082900490506125dd565b80841161264457600080fd5b6000848688096000868103871696879004966002600389028118808a02820302808a02820302808a02820302808a02820302808a02820302808a02909103029181900381900460010186841190950394909402919094039290920491909117919091029150509392505050565b6000816020015173ffffffffffffffffffffffffffffffffffffffff16826000015173ffffffffffffffffffffffffffffffffffffffff16106126f357600080fd5b508051602080830151604093840151845173ffffffffffffffffffffffffffffffffffffffff94851681850152939091168385015262ffffff166060808401919091528351808403820181526080840185528051908301207fff0000000000000000000000000000000000000000000000000000000000000060a085015294901b7fffffffffffffffffffffffffffffffffffffffff0000000000000000000000001660a183015260b58201939093527fe34f199b19b2b4f47f68442619d555527d244f78a3297ea89325f843f87b8b5460d5808301919091528251808303909101815260f5909101909152805191012090565b803561225681613c85565b805161225681613c85565b803561225681613caa565b805161225681613caa565b600060e08284031215612824578081fd5b60405160e0810181811067ffffffffffffffff8211171561284157fe5b604052905080612850836127e7565b815261285e602084016127e7565b60208201526040830135604082015260608301356060820152612883608084016127e7565b608082015261289460a084016127fd565b60a08201526128a560c084016127fd565b60c08201525092915050565b80516fffffffffffffffffffffffffffffffff8116811461225657600080fd5b805162ffffff8116811461225657600080fd5b6000806000806000608086880312156128fb578081fd5b853561290681613c85565b9450602086013561291681613c85565b935060408601359250606086013567ffffffffffffffff80821115612939578283fd5b818801915088601f83011261294c578283fd5b81358181111561295a578384fd5b89602082850101111561296b578384fd5b9699959850939650602001949392505050565b60008060208385031215612990578182fd5b823567ffffffffffffffff808211156129a7578384fd5b818501915085601f8301126129ba578384fd5b8135818111156129c8578485fd5b86602080830285010111156129db578485fd5b60209290920196919550909350505050565b600060208083850312156129ff578182fd5b823567ffffffffffffffff80821115612a16578384fd5b818501915085601f830112612a29578384fd5b813581811115612a3557fe5b612a428485830201613bf1565b818152848101925083850160e0808402860187018a1015612a61578788fd5b8795505b83861015612a8d57612a778a83612813565b8552600195909501949386019390810190612a65565b509098975050505050505050565b600060208284031215612aac578081fd5b5035919050565b60008060408385031215612ac5578182fd5b8235612ad081613c85565b91506020830135612ae081613c85565b809150509250929050565b600080600060608486031215612aff578081fd5b8335612b0a81613c85565b92506020840135612b1a81613c85565b929592945050506040919091013590565b600080600060608486031215612b3f578081fd5b83518060060b8114612b4f578182fd5b6020850151909350612b6081613c85565b604085015190925063ffffffff81168114612b79578182fd5b809150509250925092565b600060208284031215612b95578081fd5b815167ffffffffffffffff811115612bab578182fd5b8201601f81018413612bbb578182fd5b8051612bce612bc982613c15565b613bf1565b818152856020838501011115612be2578384fd5b612bf3826020830160208601613c55565b95945050505050565b600060e08284031215612c0d578081fd5b6125dd8383612813565b6000806101008385031215612c2a578182fd5b612c348484612813565b9460e0939093013593505050565b60008060408385031215612c54578182fd5b823591506020830135612ae081613c85565b600080600060608486031215612c7a578081fd5b833592506020840135612c8c81613c85565b9150604084013567ffffffffffffffff811115612ca7578182fd5b8401601f81018613612cb7578182fd5b8035612cc5612bc982613c15565b818152876020838501011115612cd9578384fd5b8160208401602083013783602083830101528093505050509250925092565b60008060408385031215612d0a578182fd5b50508035926020909101359150565b6000806000806000806000806000806000806101808d8f031215612d3b57898afd5b8c516bffffffffffffffffffffffff81168114612d56578a8bfd5b9b50612d6460208e016127f2565b9a50612d7260408e016127f2565b9950612d8060608e016127f2565b9850612d8e60808e016128d1565b9750612d9c60a08e01612808565b9650612daa60c08e01612808565b9550612db860e08e016128b1565b94506101008d015193506101208d01519250612dd76101408e016128b1565b9150612de66101608e016128b1565b90509295989b509295989b509295989b565b60008151808452612e10816020860160208601613c55565b601f017fffffffffffffffffffffffffffffffffffffffffffffffffffffffffffffffe0169290920160200192915050565b6000828483379101908152919050565b600073ffffffffffffffffffffffffffffffffffffffff808716835280861660208401525083604083015260806060830152612e916080830184612df8565b9695505050505050565b73ffffffffffffffffffffffffffffffffffffffff94909416845265ffffffffffff929092166020840152600290810b60408401520b606082015260800190565b6000602080830181845280855180835260408601915060408482028701019250838701855b82811015612f4d577fffffffffffffffffffffffffffffffffffffffffffffffffffffffffffffffc0888603018452612f3b858351612df8565b94509285019290850190600101612f01565b5092979650505050505050565b7fffffffff0000000000000000000000000000000000000000000000000000000091909116815260200190565b73ffffffffffffffffffffffffffffffffffffffff91909116815260200190565b600292830b8152910b602082015260400190565b6000602082526125dd6020830184612df8565b60208082526032908201527f556e697377617056335374616b65723a3a656e64496e63656e746976653a206e60408201527f6f20726566756e6420617661696c61626c650000000000000000000000000000606082015260800190565b60208082526045908201527f556e697377617056335374616b65723a3a7472616e736665724465706f73697460408201527f3a2063616e206f6e6c792062652063616c6c6564206279206465706f7369742060608201527f6f776e6572000000000000000000000000000000000000000000000000000000608082015260a00190565b60208082526034908201527f556e697377617056335374616b65723a3a676574526577617264496e666f3a2060408201527f7374616b6520646f6573206e6f74206578697374000000000000000000000000606082015260800190565b60208082526043908201527f556e697377617056335374616b65723a3a656e64496e63656e746976653a206360408201527f616e6e6f7420656e6420696e63656e74697665206265666f726520656e64207460608201527f696d650000000000000000000000000000000000000000000000000000000000608082015260a00190565b60208082526033908201527f556e697377617056335374616b65723a3a756e7374616b65546f6b656e3a207360408201527f74616b6520646f6573206e6f7420657869737400000000000000000000000000606082015260800190565b60208082526042908201527f556e697377617056335374616b65723a3a7769746864726177546f6b656e3a2060408201527f63616e6e6f7420776974686472617720746f6b656e207768696c65207374616b60608201527f6564000000000000000000000000000000000000000000000000000000000000608082015260a00190565b60208082526031908201527f556e697377617056335374616b65723a3a7374616b65546f6b656e3a20746f6b60408201527f656e20616c7265616479207374616b6564000000000000000000000000000000606082015260800190565b6020808252602c908201527f556e697377617056335374616b65723a3a7374616b65546f6b656e3a20696e6360408201527f656e7469766520656e6465640000000000000000000000000000000000000000606082015260800190565b6020808252603c908201527f556e697377617056335374616b65723a3a7472616e736665724465706f73697460408201527f3a20696e76616c6964207472616e7366657220726563697069656e7400000000606082015260800190565b60208082526049908201527f556e697377617056335374616b65723a3a637265617465496e63656e7469766560408201527f3a2073746172742074696d65206d757374206265206e6f77206f7220696e207460608201527f6865206675747572650000000000000000000000000000000000000000000000608082015260a00190565b602080825260409082018190527f556e697377617056335374616b65723a3a7374616b65546f6b656e3a2063616e908201527f6e6f74207374616b6520746f6b656e20776974682030206c6971756964697479606082015260800190565b60208082526033908201527f556e697377617056335374616b65723a3a7374616b65546f6b656e3a206e6f6e60408201527f2d6578697374656e7420696e63656e7469766500000000000000000000000000606082015260800190565b60208082526056908201527f556e697377617056335374616b65723a3a756e7374616b65546f6b656e3a206f60408201527f6e6c79206f776e65722063616e20776974686472617720746f6b656e2062656660608201527f6f726520696e63656e7469766520656e642074696d6500000000000000000000608082015260a00190565b60208082526032908201527f556e697377617056335374616b65723a3a7374616b65546f6b656e3a20696e6360408201527f656e74697665206e6f7420737461727465640000000000000000000000000000606082015260800190565b60208082526041908201527f556e697377617056335374616b65723a3a7374616b65546f6b656e3a20746f6b60408201527f656e20706f6f6c206973206e6f742074686520696e63656e7469766520706f6f60608201527f6c00000000000000000000000000000000000000000000000000000000000000608082015260a00190565b6020808252603d908201527f556e697377617056335374616b65723a3a7769746864726177546f6b656e3a2060408201527f6f6e6c79206f776e65722063616e20776974686472617720746f6b656e000000606082015260800190565b6020808252604d908201527f556e697377617056335374616b65723a3a656e64496e63656e746976653a206360408201527f616e6e6f7420656e6420696e63656e74697665207768696c65206465706f736960608201527f747320617265207374616b656400000000000000000000000000000000000000608082015260a00190565b60208082526029908201527f746865207370656369666965642072616e6765206e6f7420696e20696e63656e60408201527f7469766520706f6f6c0000000000000000000000000000000000000000000000606082015260800190565b60208082526037908201527f556e697377617056335374616b65723a3a7374616b65546f6b656e3a206f6e6c60408201527f79206f776e65722063616e207374616b6520746f6b656e000000000000000000606082015260800190565b60208082526039908201527f556e697377617056335374616b65723a3a637265617465496e63656e7469766560408201527f3a20726577617264206d75737420626520706f73697469766500000000000000606082015260800190565b602080825260409082018190527f556e697377617056335374616b65723a3a637265617465496e63656e74697665908201527f3a2073746172742074696d6520746f6f2066617220696e746f20667574757265606082015260800190565b602080825260409082018190527f556e697377617056335374616b65723a3a637265617465496e63656e74697665908201527f3a20696e63656e74697665206475726174696f6e20697320746f6f206c6f6e67606082015260800190565b60208082526044908201527f556e697377617056335374616b65723a3a637265617465496e63656e7469766560408201527f3a2073746172742074696d65206d757374206265206265666f726520656e642060608201527f74696d6500000000000000000000000000000000000000000000000000000000608082015260a00190565b60208082526032908201527f556e697377617056335374616b65723a3a6f6e4552433732315265636569766560408201527f643a206e6f74206120756e697633206e66740000000000000000000000000000606082015260800190565b60208082526039908201527f556e697377617056335374616b65723a3a7769746864726177546f6b656e3a2060408201527f63616e6e6f7420776974686472617720746f207374616b657200000000000000606082015260800190565b600060e08201905073ffffffffffffffffffffffffffffffffffffffff80845116835280602085015116602084015260408401516040840152606084015160608401528060808501511660808401525060a083015160020b60a083015260c083015160020b60c083015292915050565b6fffffffffffffffffffffffffffffffff91909116815260200190565b73ffffffffffffffffffffffffffffffffffffffff9290921682526fffffffffffffffffffffffffffffffff16602082015260400190565b90815260200190565b91825273ffffffffffffffffffffffffffffffffffffffff16602082015260400190565b94855273ffffffffffffffffffffffffffffffffffffffff9390931660208501526bffffffffffffffffffffffff919091166040840152600290810b60608401520b608082015260a00190565b938452602084019290925273ffffffffffffffffffffffffffffffffffffffff166040830152606082015260800190565b60008083357fffffffffffffffffffffffffffffffffffffffffffffffffffffffffffffffe1843603018112613bbb578283fd5b83018035915067ffffffffffffffff821115613bd5578283fd5b602001915036819003821315613bea57600080fd5b9250929050565b60405181810167ffffffffffffffff81118282101715613c0d57fe5b604052919050565b600067ffffffffffffffff821115613c2957fe5b50601f017fffffffffffffffffffffffffffffffffffffffffffffffffffffffffffffffe01660200190565b60005b83811015613c70578181015183820152602001613c58565b83811115613c7f576000848401525b50505050565b73ffffffffffffffffffffffffffffffffffffffff81168114613ca757600080fd5b50565b8060020b8114613ca757600080fdfea164736f6c6343000706000a",
  "linkReferences": {},
  "deployedLinkReferences": {}
}