{
  "_format": "hh-sol-artifact-1",
  "contractName": "TestIncentiveId",
  "sourceName": "contracts/test/TestIncentiveId.sol",
  "abi": [
    {
      "inputs": [
        {
          "components": [
            {
              "internalType": "contract IERC20Minimal",
              "name": "rewardToken",
              "type": "address"
            },
            {
              "internalType": "contract IUniswapV3Pool",
              "name": "pool",
              "type": "address"
            },
            {
              "internalType": "uint256",
              "name": "startTime",
              "type": "uint256"
            },
            {
              "internalType": "uint256",
              "name": "endTime",
              "type": "uint256"
            },
            {
              "internalType": "address",
              "name": "refundee",
              "type": "address"
            },
            {
              "internalType": "int24",
              "name": "tickLower",
              "type": "int24"
            },
            {
              "internalType": "int24",
              "name": "tickUpper",
              "type": "int24"
            }
          ],
          "internalType": "struct IUniswapV3Staker.IncentiveKey",
          "name": "key",
          "type": "tuple"
        }
      ],
      "name": "compute",
      "outputs": [
        {
          "internalType": "bytes32",
          "name": "",
          "type": "bytes32"
        }
      ],
      "stateMutability": "pure",
      "type": "function"
    }
  ],
  "bytecode": "0x608060405234801561001057600080fd5b506101f3806100206000396000f3fe608060405234801561001057600080fd5b506004361061002b5760003560e01c806324e168c914610030575b600080fd5b61004361003e3660046100d2565b610059565b604051610050919061016d565b60405180910390f35b60006100648261006c565b90505b919050565b60008160405160200161007f9190610176565b604051602081830303815290604052805190602001209050919050565b803573ffffffffffffffffffffffffffffffffffffffff8116811461006757600080fd5b8035600281900b811461006757600080fd5b600060e082840312156100e3578081fd5b60405160e0810181811067ffffffffffffffff8211171561010057fe5b60405261010c8361009c565b815261011a6020840161009c565b6020820152604083013560408201526060830135606082015261013f6080840161009c565b608082015261015060a084016100c0565b60a082015261016160c084016100c0565b60c08201529392505050565b90815260200190565b600060e08201905073ffffffffffffffffffffffffffffffffffffffff80845116835280602085015116602084015260408401516040840152606084015160608401528060808501511660808401525060a083015160020b60a083015260c083015160020b60c08301529291505056fea164736f6c6343000706000a",
  "linkReferences": {},
  "deployedLinkReferences": {}
}